{
  "_format": "hh-sol-artifact-1",
  "contractName": "MyEpicNFT",
  "sourceName": "contracts/MyEpicNFT.sol",
  "abi": [
    {
      "inputs": [],
      "stateMutability": "nonpayable",
      "type": "constructor"
    },
    {
      "anonymous": false,
      "inputs": [
        {
          "indexed": true,
          "internalType": "address",
          "name": "owner",
          "type": "address"
        },
        {
          "indexed": true,
          "internalType": "address",
          "name": "approved",
          "type": "address"
        },
        {
          "indexed": true,
          "internalType": "uint256",
          "name": "tokenId",
          "type": "uint256"
        }
      ],
      "name": "Approval",
      "type": "event"
    },
    {
      "anonymous": false,
      "inputs": [
        {
          "indexed": true,
          "internalType": "address",
          "name": "owner",
          "type": "address"
        },
        {
          "indexed": true,
          "internalType": "address",
          "name": "operator",
          "type": "address"
        },
        {
          "indexed": false,
          "internalType": "bool",
          "name": "approved",
          "type": "bool"
        }
      ],
      "name": "ApprovalForAll",
      "type": "event"
    },
    {
      "anonymous": false,
      "inputs": [
        {
          "indexed": false,
          "internalType": "address",
          "name": "sender",
          "type": "address"
        },
        {
          "indexed": false,
          "internalType": "uint256",
          "name": "tokenId",
          "type": "uint256"
        }
      ],
      "name": "NewEpicNFTMinted",
      "type": "event"
    },
    {
      "anonymous": false,
      "inputs": [
        {
          "indexed": true,
          "internalType": "address",
          "name": "from",
          "type": "address"
        },
        {
          "indexed": true,
          "internalType": "address",
          "name": "to",
          "type": "address"
        },
        {
          "indexed": true,
          "internalType": "uint256",
          "name": "tokenId",
          "type": "uint256"
        }
      ],
      "name": "Transfer",
      "type": "event"
    },
    {
      "anonymous": false,
      "inputs": [
        {
          "indexed": false,
          "internalType": "uint256",
          "name": "maxSupply",
          "type": "uint256"
        },
        {
          "indexed": false,
          "internalType": "uint256",
          "name": "currentSupply",
          "type": "uint256"
        }
      ],
      "name": "getTotalNFTsMintedSoFar",
      "type": "event"
    },
    {
      "inputs": [
        {
          "internalType": "address",
          "name": "to",
          "type": "address"
        },
        {
          "internalType": "uint256",
          "name": "tokenId",
          "type": "uint256"
        }
      ],
      "name": "approve",
      "outputs": [],
      "stateMutability": "nonpayable",
      "type": "function"
    },
    {
      "inputs": [
        {
          "internalType": "address",
          "name": "owner",
          "type": "address"
        }
      ],
      "name": "balanceOf",
      "outputs": [
        {
          "internalType": "uint256",
          "name": "",
          "type": "uint256"
        }
      ],
      "stateMutability": "view",
      "type": "function"
    },
    {
      "inputs": [
        {
          "internalType": "uint256",
          "name": "tokenId",
          "type": "uint256"
        }
      ],
      "name": "getApproved",
      "outputs": [
        {
          "internalType": "address",
          "name": "",
          "type": "address"
        }
      ],
      "stateMutability": "view",
      "type": "function"
    },
    {
      "inputs": [
        {
          "internalType": "address",
          "name": "owner",
          "type": "address"
        },
        {
          "internalType": "address",
          "name": "operator",
          "type": "address"
        }
      ],
      "name": "isApprovedForAll",
      "outputs": [
        {
          "internalType": "bool",
          "name": "",
          "type": "bool"
        }
      ],
      "stateMutability": "view",
      "type": "function"
    },
    {
      "inputs": [],
      "name": "makeAnEpicNFT",
      "outputs": [],
      "stateMutability": "nonpayable",
      "type": "function"
    },
    {
      "inputs": [],
      "name": "maxSupply",
      "outputs": [
        {
          "internalType": "uint256",
          "name": "",
          "type": "uint256"
        }
      ],
      "stateMutability": "view",
      "type": "function"
    },
    {
      "inputs": [],
      "name": "name",
      "outputs": [
        {
          "internalType": "string",
          "name": "",
          "type": "string"
        }
      ],
      "stateMutability": "view",
      "type": "function"
    },
    {
      "inputs": [
        {
          "internalType": "uint256",
          "name": "tokenId",
          "type": "uint256"
        }
      ],
      "name": "ownerOf",
      "outputs": [
        {
          "internalType": "address",
          "name": "",
          "type": "address"
        }
      ],
      "stateMutability": "view",
      "type": "function"
    },
    {
      "inputs": [
        {
          "internalType": "uint256",
          "name": "tokenId",
          "type": "uint256"
        }
      ],
      "name": "pickRandomFirstWord",
      "outputs": [
        {
          "internalType": "string",
          "name": "",
          "type": "string"
        }
      ],
      "stateMutability": "view",
      "type": "function"
    },
    {
      "inputs": [
        {
          "internalType": "uint256",
          "name": "tokenId",
          "type": "uint256"
        }
      ],
      "name": "pickRandomSecondWord",
      "outputs": [
        {
          "internalType": "string",
          "name": "",
          "type": "string"
        }
      ],
      "stateMutability": "view",
      "type": "function"
    },
    {
      "inputs": [
        {
          "internalType": "uint256",
          "name": "tokenId",
          "type": "uint256"
        }
      ],
      "name": "pickRandomThirdWord",
      "outputs": [
        {
          "internalType": "string",
          "name": "",
          "type": "string"
        }
      ],
      "stateMutability": "view",
      "type": "function"
    },
    {
      "inputs": [
        {
          "internalType": "address",
          "name": "from",
          "type": "address"
        },
        {
          "internalType": "address",
          "name": "to",
          "type": "address"
        },
        {
          "internalType": "uint256",
          "name": "tokenId",
          "type": "uint256"
        }
      ],
      "name": "safeTransferFrom",
      "outputs": [],
      "stateMutability": "nonpayable",
      "type": "function"
    },
    {
      "inputs": [
        {
          "internalType": "address",
          "name": "from",
          "type": "address"
        },
        {
          "internalType": "address",
          "name": "to",
          "type": "address"
        },
        {
          "internalType": "uint256",
          "name": "tokenId",
          "type": "uint256"
        },
        {
          "internalType": "bytes",
          "name": "_data",
          "type": "bytes"
        }
      ],
      "name": "safeTransferFrom",
      "outputs": [],
      "stateMutability": "nonpayable",
      "type": "function"
    },
    {
      "inputs": [
        {
          "internalType": "address",
          "name": "operator",
          "type": "address"
        },
        {
          "internalType": "bool",
          "name": "approved",
          "type": "bool"
        }
      ],
      "name": "setApprovalForAll",
      "outputs": [],
      "stateMutability": "nonpayable",
      "type": "function"
    },
    {
      "inputs": [
        {
          "internalType": "bytes4",
          "name": "interfaceId",
          "type": "bytes4"
        }
      ],
      "name": "supportsInterface",
      "outputs": [
        {
          "internalType": "bool",
          "name": "",
          "type": "bool"
        }
      ],
      "stateMutability": "view",
      "type": "function"
    },
    {
      "inputs": [],
      "name": "symbol",
      "outputs": [
        {
          "internalType": "string",
          "name": "",
          "type": "string"
        }
      ],
      "stateMutability": "view",
      "type": "function"
    },
    {
      "inputs": [
        {
          "internalType": "uint256",
          "name": "tokenId",
          "type": "uint256"
        }
      ],
      "name": "tokenURI",
      "outputs": [
        {
          "internalType": "string",
          "name": "",
          "type": "string"
        }
      ],
      "stateMutability": "view",
      "type": "function"
    },
    {
      "inputs": [
        {
          "internalType": "address",
          "name": "from",
          "type": "address"
        },
        {
          "internalType": "address",
          "name": "to",
          "type": "address"
        },
        {
          "internalType": "uint256",
          "name": "tokenId",
          "type": "uint256"
        }
      ],
      "name": "transferFrom",
      "outputs": [],
      "stateMutability": "nonpayable",
      "type": "function"
    }
  ],
  "bytecode": "0x6080604052603260085560405180610180016040528061014581526020016200a66f6101459139600990805190602001906200003d929190620064c9565b5060405180610e8001604052806040518060400160405280600681526020017f416775696c61000000000000000000000000000000000000000000000000000081525081526020016040518060400160405280600881526020017f417665737472757a00000000000000000000000000000000000000000000000081525081526020016040518060400160405280600781526020017f42616c6c656e610000000000000000000000000000000000000000000000000081525081526020016040518060400160405280600781526020017f4269736f6e74650000000000000000000000000000000000000000000000000081525081526020016040518060400160405280600681526020017f427566616c6f000000000000000000000000000000000000000000000000000081525081526020016040518060400160405280600481526020017f4275686f0000000000000000000000000000000000000000000000000000000081525081526020016040518060400160405280600681526020017f427569747265000000000000000000000000000000000000000000000000000081525081526020016040518060400160405280600581526020017f427572726f00000000000000000000000000000000000000000000000000000081525081526020016040518060400160405280600781526020017f436162616c6c6f0000000000000000000000000000000000000000000000000081525081526020016040518060400160405280600581526020017f436162726100000000000000000000000000000000000000000000000000000081525081526020016040518060400160405280600881526020017f43616d616c656f6e00000000000000000000000000000000000000000000000081525081526020016040518060400160405280600781526020017f43616d656c6c6f0000000000000000000000000000000000000000000000000081525081526020016040518060400160405280600781526020017f43616e6172696f0000000000000000000000000000000000000000000000000081525081526020016040518060400160405280600681526020017f436173746f72000000000000000000000000000000000000000000000000000081525081526020016040518060400160405280600581526020017f436562726100000000000000000000000000000000000000000000000000000081525081526020016040518060400160405280600581526020017f436572646f00000000000000000000000000000000000000000000000000000081525081526020016040518060400160405280600681526020017f43696572766f000000000000000000000000000000000000000000000000000081525081526020016040518060400160405280600581526020017f436f62726100000000000000000000000000000000000000000000000000000081525081526020016040518060400160405280600781526020017f436f6c696272690000000000000000000000000000000000000000000000000081525081526020016040518060400160405280600981526020017f436f6d616472656a61000000000000000000000000000000000000000000000081525081526020016040518060400160405280600681526020017f436f6e646f72000000000000000000000000000000000000000000000000000081525081526020016040518060400160405280600681526020017f436f6e656a6f000000000000000000000000000000000000000000000000000081525081526020016040518060400160405280600681526020017f44656c66696e000000000000000000000000000000000000000000000000000081525081526020016040518060400160405280600881526020017f456c6566616e746500000000000000000000000000000000000000000000000081525081526020016040518060400160405280600681526020017f46616973616e000000000000000000000000000000000000000000000000000081525081526020016040518060400160405280600881526020017f466c616d656e636f00000000000000000000000000000000000000000000000081525081526020016040518060400160405280600481526020017f466f63610000000000000000000000000000000000000000000000000000000081525081526020016040518060400160405280600781526020017f47616c6c696e610000000000000000000000000000000000000000000000000081525081526020016040518060400160405280600581526020017f47616c6c6f00000000000000000000000000000000000000000000000000000081525081526020016040518060400160405280600481526020017f4761746f0000000000000000000000000000000000000000000000000000000081525081526020016040518060400160405280600681526020017f476f72696c61000000000000000000000000000000000000000000000000000081525081526020016040518060400160405280600881526020017f477565706172646f00000000000000000000000000000000000000000000000081525081526020016040518060400160405280600781526020017f48616d737465720000000000000000000000000000000000000000000000000081525081526020016040518060400160405280600581526020017f4869656e6100000000000000000000000000000000000000000000000000000081525081526020016040518060400160405280600a81526020017f4869706f706f74616d6f0000000000000000000000000000000000000000000081525081526020016040518060400160405280600681526020017f4a6162616c69000000000000000000000000000000000000000000000000000081525081526020016040518060400160405280600681526020017f4a6167756172000000000000000000000000000000000000000000000000000081525081526020016040518060400160405280600581526020017f4b6f616c6100000000000000000000000000000000000000000000000000000081525081526020016040518060400160405280600781526020017f4c61676172746f0000000000000000000000000000000000000000000000000081525081526020016040518060400160405280600581526020017f4c6c616d6100000000000000000000000000000000000000000000000000000081525081526020016040518060400160405280600481526020017f4c6f626f0000000000000000000000000000000000000000000000000000000081525081526020016040518060400160405280600481526020017f4c6f726f0000000000000000000000000000000000000000000000000000000081525081526020016040518060400160405280600681526020017f4d616e617469000000000000000000000000000000000000000000000000000081525081526020016040518060400160405280600781526020017f4d6170616368650000000000000000000000000000000000000000000000000081525081526020016040518060400160405280600481526020017f4d6f6e6f0000000000000000000000000000000000000000000000000000000081525081526020016040518060400160405280600a81526020017f4d75726369656c61676f0000000000000000000000000000000000000000000081525081526020016040518060400160405280600681526020017f4e7574726961000000000000000000000000000000000000000000000000000081525081526020016040518060400160405280600481526020017f4f7263610000000000000000000000000000000000000000000000000000000081525081526020016040518060400160405280600381526020017f4f736f000000000000000000000000000000000000000000000000000000000081525081526020016040518060400160405280600681526020017f50616c6f6d61000000000000000000000000000000000000000000000000000081525081526020016040518060400160405280600581526020017f50616e646100000000000000000000000000000000000000000000000000000081525081526020016040518060400160405280600481526020017f5061746f0000000000000000000000000000000000000000000000000000000081525081526020016040518060400160405280600881526020017f50656c6963616e6f00000000000000000000000000000000000000000000000081525081526020016040518060400160405280600581526020017f506572726f00000000000000000000000000000000000000000000000000000081525081526020016040518060400160405280600b81526020017f50756572636f657370696e00000000000000000000000000000000000000000081525081526020016040518060400160405280600481526020017f50756d610000000000000000000000000000000000000000000000000000000081525081526020016040518060400160405280600481526020017f52656e6f0000000000000000000000000000000000000000000000000000000081525081526020016040518060400160405280600981526020017f5365727069656e7465000000000000000000000000000000000000000000000081525081526020016040518060400160405280600581526020017f546170697200000000000000000000000000000000000000000000000000000081525081526020016040518060400160405280600581526020017f54656a6f6e00000000000000000000000000000000000000000000000000000081525081526020016040518060400160405280600481526020017f546f726f0000000000000000000000000000000000000000000000000000000081525081526020016040518060400160405280600481526020017f566163610000000000000000000000000000000000000000000000000000000081525081526020016040518060400160405280600881526020017f5a6f7272696c6c6f00000000000000000000000000000000000000000000000081525081526020016040518060400160405280600981526020017f4368696d70616e6365000000000000000000000000000000000000000000000081525081526020016040518060400160405280600581526020017f546967726500000000000000000000000000000000000000000000000000000081525081526020016040518060400160405280600681526020017f4a6972616661000000000000000000000000000000000000000000000000000081525081526020016040518060400160405280600581526020017f5a6f72726f00000000000000000000000000000000000000000000000000000081525081526020016040518060400160405280600b81526020017f52696e6f6365726f6e746500000000000000000000000000000000000000000081525081526020016040518060400160405280600581526020017f5261746f6e00000000000000000000000000000000000000000000000000000081525081526020016040518060400160405280600481526020017f546f706f0000000000000000000000000000000000000000000000000000000081525081526020016040518060400160405280600781526020017f4368696e6368650000000000000000000000000000000000000000000000000081525081526020016040518060400160405280600a81526020017f436f6368696e696c6c610000000000000000000000000000000000000000000081525081526020016040518060400160405280600981526020017f437563617261636861000000000000000000000000000000000000000000000081525081526020016040518060400160405280600681526020017f4772696c6c6f000000000000000000000000000000000000000000000000000081525081526020016040518060400160405280600681526020017f477573616e6f000000000000000000000000000000000000000000000000000081525081526020016040518060400160405280600581526020017f4c6172766100000000000000000000000000000000000000000000000000000081525081526020016040518060400160405280600881526020017f4c6962656c756c6100000000000000000000000000000000000000000000000081525081526020016040518060400160405280600781526020017f4c6f6d6272697a0000000000000000000000000000000000000000000000000081525081526020016040518060400160405280600a81526020017f4c75636965726e6167610000000000000000000000000000000000000000000081525081526020016040518060400160405280600581526020017f50696f6a6f00000000000000000000000000000000000000000000000000000081525081526020016040518060400160405280600781526020017f506f6c696c6c610000000000000000000000000000000000000000000000000081525081526020016040518060400160405280600581526020017f50756c676100000000000000000000000000000000000000000000000000000081525081526020016040518060400160405280600a81526020017f53616c74616d6f6e74650000000000000000000000000000000000000000000081525081526020016040518060400160405280600b81526020017f53616e6775696a75656c6100000000000000000000000000000000000000000081525081526020016040518060400160405280600681526020017f416c6d656a61000000000000000000000000000000000000000000000000000081525081526020016040518060400160405280600681526020017f4261626f7361000000000000000000000000000000000000000000000000000081525081526020016040518060400160405280600781526020017f43616c616d61720000000000000000000000000000000000000000000000000081525081526020016040518060400160405280600881526020017f43616e6772656a6f00000000000000000000000000000000000000000000000081525081526020016040518060400160405280600781526020017f43617261636f6c0000000000000000000000000000000000000000000000000081525081526020016040518060400160405280600781526020017f436967617272610000000000000000000000000000000000000000000000000081525081526020016040518060400160405280600581526020017f4572697a6f00000000000000000000000000000000000000000000000000000081525081526020016040518060400160405280600a81526020017f45736361726162616a6f0000000000000000000000000000000000000000000081525081526020016040518060400160405280600981526020017f476172726170617461000000000000000000000000000000000000000000000081525081526020016040518060400160405280600781526020017f476f72676f6a6f0000000000000000000000000000000000000000000000000081525081526020016040518060400160405280600781526020017f486f726d6967610000000000000000000000000000000000000000000000000081525081526020016040518060400160405280600881526020017f4c616e676f73746100000000000000000000000000000000000000000000000081525081526020016040518060400160405280600a81526020017f4c616e676f7374696e6f0000000000000000000000000000000000000000000081525081526020016040518060400160405280600881526020017f4d617269706f736100000000000000000000000000000000000000000000000081525081526020016040518060400160405280600881526020017f4d656a696c6c6f6e00000000000000000000000000000000000000000000000081525081526020016040518060400160405280600581526020017f4d6f73636100000000000000000000000000000000000000000000000000000081525081526020016040518060400160405280600881526020017f4d6f73717569746f00000000000000000000000000000000000000000000000081525081526020016040518060400160405280600581526020017f4f7374726100000000000000000000000000000000000000000000000000000081525081526020016040518060400160405280600581526020017f50756c706f00000000000000000000000000000000000000000000000000000081525081526020016040518060400160405280600681526020017f417669737061000000000000000000000000000000000000000000000000000081525081526020016040518060400160405280600681526020017f4d6564757361000000000000000000000000000000000000000000000000000081525081526020016040518060400160405280600781526020017f54696275726f6e0000000000000000000000000000000000000000000000000081525081526020016040518060400160405280600581526020017f4d6f72736100000000000000000000000000000000000000000000000000000081525081526020016040518060400160405280600c81526020017f4f726e69746f7272696e636f000000000000000000000000000000000000000081525081526020016040518060400160405280600a81526020017f4d616e746172726179610000000000000000000000000000000000000000000081525081526020016040518060400160405280600481526020017f52616e610000000000000000000000000000000000000000000000000000000081525081526020016040518060400160405280600481526020017f5361706f0000000000000000000000000000000000000000000000000000000081525081526020016040518060400160405280600a81526020017f53616c616d616e6472610000000000000000000000000000000000000000000081525081526020016040518060400160405280600981526020017f436c6172696e65726f000000000000000000000000000000000000000000000081525081526020016040518060400160405280600581526020017f4162656a6100000000000000000000000000000000000000000000000000000081525081526020016040518060400160405280600881526020017f4162656a6f72726f00000000000000000000000000000000000000000000000081525081526020016040518060400160405280600581526020017f547563616e000000000000000000000000000000000000000000000000000000815250815250600a90607462001b169291906200655a565b5060405180611f6001604052806040518060400160405280600781526020017f41626f6761646f0000000000000000000000000000000000000000000000000081525081526020016040518060400160405280601681526020017f41636164656d69636f41646d696e6973747261646f720000000000000000000081525081526020016040518060400160405280600e81526020017f41646d696e69737472617469766f00000000000000000000000000000000000081525081526020016040518060400160405280600881526020017f4167726f6e6f6d6f00000000000000000000000000000000000000000000000081525081526020016040518060400160405280600a81526020017f416c6572676f6c6f676f0000000000000000000000000000000000000000000081525081526020016040518060400160405280600981526020017f416c65726769737461000000000000000000000000000000000000000000000081525081526020016040518060400160405280600a81526020017f416c6572676f6c6f67610000000000000000000000000000000000000000000081525081526020016040518060400160405280600981526020017f416c65726769737461000000000000000000000000000000000000000000000081525081526020016040518060400160405280600a81526020017f416c6d6163656e65726f0000000000000000000000000000000000000000000081525081526020016040518060400160405280600b81526020017f416c6d6163656e6973746100000000000000000000000000000000000000000081525081526020016040518060400160405280600a81526020017f416c6d6163656e6572610000000000000000000000000000000000000000000081525081526020016040518060400160405280600b81526020017f416c6d6163656e6973746100000000000000000000000000000000000000000081525081526020016040518060400160405280600a81526020017f416e61746f6d697374610000000000000000000000000000000000000000000081525081526020016040518060400160405280600d81526020017f416e6573746573696f6c6f676f0000000000000000000000000000000000000081525081526020016040518060400160405280600b81526020017f416e65737465736973746100000000000000000000000000000000000000000081525081526020016040518060400160405280600d81526020017f416e6573746573696f6c6f67610000000000000000000000000000000000000081525081526020016040518060400160405280600b81526020017f416e65737465736973746100000000000000000000000000000000000000000081525081526020016040518060400160405280600b81526020017f416e746f6c6f676973746100000000000000000000000000000000000000000081525081526020016040518060400160405280600b81526020017f416e74726f706f6c6f676f00000000000000000000000000000000000000000081525081526020016040518060400160405280600881526020017f417261626973746100000000000000000000000000000000000000000000000081525081526020016040518060400160405280600981526020017f41726368697665726f000000000000000000000000000000000000000000000081525081526020016040518060400160405280600a81526020017f41727175656f6c6f676f0000000000000000000000000000000000000000000081525081526020016040518060400160405280600a81526020017f4172717569746563746f0000000000000000000000000000000000000000000081525081526020016040518060400160405280600681526020017f417365736f72000000000000000000000000000000000000000000000000000081525081526020016040518060400160405280600981526020017f4173697374656e7465000000000000000000000000000000000000000000000081525081526020016040518060400160405280600b81526020017f417374726f66697369636f00000000000000000000000000000000000000000081525081526020016040518060400160405280600981526020017f417374726f6c6f676f000000000000000000000000000000000000000000000081525081526020016040518060400160405280600981526020017f417374726f6e6f6d6f000000000000000000000000000000000000000000000081525081526020016040518060400160405280600681526020017f41746c657461000000000000000000000000000000000000000000000000000081525081526020016040518060400160405280600281526020017f415400000000000000000000000000000000000000000000000000000000000081525081526020016040518060400160405280600581526020017f4175746f7200000000000000000000000000000000000000000000000000000081525081526020016040518060400160405280600881526020017f417578696c69617200000000000000000000000000000000000000000000000081525081526020016040518060400160405280600981526020017f41766963756c746f72000000000000000000000000000000000000000000000081525081526020016040518060400160405280600c81526020017f426163746572696f6c6f676f000000000000000000000000000000000000000081525081526020016040518060400160405280600581526020017f426564656c00000000000000000000000000000000000000000000000000000081525081526020016040518060400160405280600b81526020017f4269626c696f677261666f00000000000000000000000000000000000000000081525081526020016040518060400160405280600d81526020017f4269626c696f7465636172696f0000000000000000000000000000000000000081525081526020016040518060400160405280600981526020017f42696f66697369636f000000000000000000000000000000000000000000000081525081526020016040518060400160405280600881526020017f42696f677261666f00000000000000000000000000000000000000000000000081525081526020016040518060400160405280600781526020017f42696f6c6f676f0000000000000000000000000000000000000000000000000081525081526020016040518060400160405280600a81526020017f42696f7175696d69636f0000000000000000000000000000000000000000000081525081526020016040518060400160405280600881526020017f426f74616e69636f00000000000000000000000000000000000000000000000081525081526020016040518060400160405280600b81526020017f43616e6365726f6c6f676f00000000000000000000000000000000000000000081525081526020016040518060400160405280600a81526020017f43617264696f6c6f676f0000000000000000000000000000000000000000000081525081526020016040518060400160405280600a81526020017f436172746f677261666f0000000000000000000000000000000000000000000081525081526020016040518060400160405280600981526020017f436173747261646f72000000000000000000000000000000000000000000000081525081526020016040518060400160405280600b81526020017f436174656472617469636f00000000000000000000000000000000000000000081525081526020016040518060400160405280600881526020017f436972756a616e6f00000000000000000000000000000000000000000000000081525081526020016040518060400160405280600881526020017f4369746f6c6f676f00000000000000000000000000000000000000000000000081525081526020016040518060400160405280600b81526020017f436c696d61746f6c6f676f00000000000000000000000000000000000000000081525081526020016040518060400160405280600a81526020017f436f6469726563746f720000000000000000000000000000000000000000000081525081526020016040518060400160405280600881526020017f436f6d6164726f6e00000000000000000000000000000000000000000000000081525081526020016040518060400160405280600981526020017f436f6e73656a65726f000000000000000000000000000000000000000000000081525081526020016040518060400160405280600881526020017f436f6e7365726a6500000000000000000000000000000000000000000000000081525081526020016040518060400160405280600b81526020017f436f6e7365727661646f7200000000000000000000000000000000000000000081525081526020016040518060400160405280600b81526020017f436f6f7264696e61646f7200000000000000000000000000000000000000000081525081526020016040518060400160405280600a81526020017f436f736d6f677261666f0000000000000000000000000000000000000000000081525081526020016040518060400160405280600981526020017f436f736d6f6c6f676f000000000000000000000000000000000000000000000081525081526020016040518060400160405280600c81526020017f4372696d696e616c69737461000000000000000000000000000000000000000081525081526020016040518060400160405280600981526020017f43726f6e6f6c6f676f000000000000000000000000000000000000000000000081525081526020016040518060400160405280600681526020017f446563616e6f000000000000000000000000000000000000000000000000000081525081526020016040518060400160405280600981526020017f4465636f7261646f72000000000000000000000000000000000000000000000081525081526020016040518060400160405280600881526020017f446566656e736f7200000000000000000000000000000000000000000000000081525081526020016040518060400160405280600881526020017f44656c656761646f00000000000000000000000000000000000000000000000081525081526020016040518060400160405280600a81526020017f44656c696e65616e74650000000000000000000000000000000000000000000081525081526020016040518060400160405280600981526020017f44656d6f677261666f000000000000000000000000000000000000000000000081525081526020016040518060400160405280600881526020017f44656e746973746100000000000000000000000000000000000000000000000081525081526020016040518060400160405280600b81526020017f4465726d61746f6c6f676f00000000000000000000000000000000000000000081525081526020016040518060400160405280600981526020017f446962756a616e7465000000000000000000000000000000000000000000000081525081526020016040518060400160405280600981526020017f44697265637469766f000000000000000000000000000000000000000000000081525081526020016040518060400160405280600881526020017f4469726563746f7200000000000000000000000000000000000000000000000081525081526020016040518060400160405280600981526020017f4469726967656e7465000000000000000000000000000000000000000000000081525081526020016040518060400160405280600681526020017f446f63746f72000000000000000000000000000000000000000000000000000081525081526020016040518060400160405280600e81526020017f446f63756d656e74616c6973746100000000000000000000000000000000000081525081526020016040518060400160405280600781526020017f45636f6c6f676f0000000000000000000000000000000000000000000000000081525081526020016040518060400160405280600a81526020017f45636f6e6f6d697374610000000000000000000000000000000000000000000081525081526020016040518060400160405280600881526020017f4564756361646f7200000000000000000000000000000000000000000000000081525081526020016040518060400160405280600a81526020017f45676970746f6c6f676f0000000000000000000000000000000000000000000081525081526020016040518060400160405280600d81526020017f456e646f6372696e6f6c6f676f0000000000000000000000000000000000000081525081526020016040518060400160405280600981526020017f456e6665726d65726f000000000000000000000000000000000000000000000081525081526020016040518060400160405280600781526020017f456e6f6c6f676f0000000000000000000000000000000000000000000000000081525081526020016040518060400160405280600a81526020017f456e746f6d6f6c6f676f0000000000000000000000000000000000000000000081525081526020016040518060400160405280600c81526020017f45706964656d696f6c6f676f000000000000000000000000000000000000000081525081526020016040518060400160405280600c81526020017f457370656369616c69737461000000000000000000000000000000000000000081525081526020016040518060400160405280600b81526020017f457370656c656f6c6f676f00000000000000000000000000000000000000000081525081526020016040518060400160405280600981526020017f457374616469737461000000000000000000000000000000000000000000000081525081526020016040518060400160405280600b81526020017f457374616469737469636f00000000000000000000000000000000000000000081525081526020016040518060400160405280600981526020017f4574696d6f6c6f676f000000000000000000000000000000000000000000000081525081526020016040518060400160405280600c81526020017f4574696d6f6c6f6769737461000000000000000000000000000000000000000081525081526020016040518060400160405280600981526020017f45746e6f677261666f000000000000000000000000000000000000000000000081525081526020016040518060400160405280600881526020017f45746e6f6c6f676f00000000000000000000000000000000000000000000000081525081526020016040518060400160405280600781526020017f45746f6c6f676f0000000000000000000000000000000000000000000000000081525081526020016040518060400160405280600a81526020017f4578616d696e61646f720000000000000000000000000000000000000000000081525081526020016040518060400160405280600b81526020017f466163756c74617469766f00000000000000000000000000000000000000000081525081526020016040518060400160405280600c81526020017f4661726d616365757469636f000000000000000000000000000000000000000081525081526020016040518060400160405280600b81526020017f4661726d61636f6c6f676f00000000000000000000000000000000000000000081525081526020016040518060400160405280600881526020017f46696c6f736f666f00000000000000000000000000000000000000000000000081525081526020016040518060400160405280600681526020017f46697363616c000000000000000000000000000000000000000000000000000081525081526020016040518060400160405280600681526020017f46697369636f000000000000000000000000000000000000000000000000000081525081526020016040518060400160405280600981526020017f466973696f6c6f676f000000000000000000000000000000000000000000000081525081526020016040518060400160405280600e81526020017f466973696f74657261706575746100000000000000000000000000000000000081525081526020016040518060400160405280600981526020017f466f6e657469737461000000000000000000000000000000000000000000000081525081526020016040518060400160405280600881526020017f466f6e696174726100000000000000000000000000000000000000000000000081525081526020016040518060400160405280600881526020017f466f6e6f6c6f676f00000000000000000000000000000000000000000000000081525081526020016040518060400160405280600781526020017f466f72656e73650000000000000000000000000000000000000000000000000081525081526020016040518060400160405280600981526020017f466f746f677261666f000000000000000000000000000000000000000000000081525081526020016040518060400160405280600b81526020017f46756e63696f6e6172696f00000000000000000000000000000000000000000081525081526020016040518060400160405280600881526020017f47656d6f6c6f676f00000000000000000000000000000000000000000000000081525081526020016040518060400160405280600981526020017f47656e657469737461000000000000000000000000000000000000000000000081525081526020016040518060400160405280600b81526020017f47656f626f74616e69636100000000000000000000000000000000000000000081525081526020016040518060400160405280600881526020017f47656f646573746100000000000000000000000000000000000000000000000081525081526020016040518060400160405280600981526020017f47656f66697369636f000000000000000000000000000000000000000000000081525081526020016040518060400160405280600881526020017f47656f677261666f00000000000000000000000000000000000000000000000081525081526020016040518060400160405280600781526020017f47656f6c6f676f0000000000000000000000000000000000000000000000000081525081526020016040518060400160405280600a81526020017f47656f6d616e7469636f0000000000000000000000000000000000000000000081525081526020016040518060400160405280600881526020017f47656f6d6574726100000000000000000000000000000000000000000000000081525081526020016040518060400160405280600a81526020017f47656f7175696d6963610000000000000000000000000000000000000000000081525081526020016040518060400160405280600781526020017f476572656e74650000000000000000000000000000000000000000000000000081525081526020016040518060400160405280600881526020017f476572696174726100000000000000000000000000000000000000000000000081525081526020016040518060400160405280600b81526020017f4765726f6e746f6c6f676f00000000000000000000000000000000000000000081525081526020016040518060400160405280600981526020017f4772616d617469636f000000000000000000000000000000000000000000000081525081526020016040518060400160405280600a81526020017f48656d61746f6c6f676f0000000000000000000000000000000000000000000081525081526020016040518060400160405280600a81526020017f48657061746f6c6f676f0000000000000000000000000000000000000000000081525081526020016040518060400160405280600c81526020017f486964726f67656f6c6f676f000000000000000000000000000000000000000081525081526020016040518060400160405280600a81526020017f486964726f677261666f0000000000000000000000000000000000000000000081525081526020016040518060400160405280600981526020017f486964726f6c6f676f000000000000000000000000000000000000000000000081525081526020016040518060400160405280600a81526020017f48696769656e697374610000000000000000000000000000000000000000000081525081526020016040518060400160405280600a81526020017f48697370616e697374610000000000000000000000000000000000000000000081525081526020016040518060400160405280600b81526020017f486973746f726961646f7200000000000000000000000000000000000000000081525081526020016040518060400160405280600981526020017f486f6d656f70617461000000000000000000000000000000000000000000000081525081526020016040518060400160405280600b81526020017f496e666f726d617469636f00000000000000000000000000000000000000000081525081526020016040518060400160405280600a81526020017f496e6d756e6f6c6f676f0000000000000000000000000000000000000000000081525081526020016040518060400160405280600981526020017f496e73706563746f72000000000000000000000000000000000000000000000081525081526020016040518060400160405280600881526020017f496e746572696e6f00000000000000000000000000000000000000000000000081525081526020016040518060400160405280600b81526020017f496e74657276656e746f7200000000000000000000000000000000000000000081525081526020016040518060400160405280600c81526020017f496e76657374696761646f72000000000000000000000000000000000000000081525081526020016040518060400160405280600981526020017f4a617264696e65726f000000000000000000000000000000000000000000000081525081526020016040518060400160405280600481526020017f4a6566650000000000000000000000000000000000000000000000000000000081525081526020016040518060400160405280600481526020017f4a75657a0000000000000000000000000000000000000000000000000000000081525081526020016040518060400160405280600681526020017f4c6563746f72000000000000000000000000000000000000000000000000000081525081526020016040518060400160405280600b81526020017f4c657869636f677261666f00000000000000000000000000000000000000000081525081526020016040518060400160405280600a81526020017f4c657869636f6c6f676f0000000000000000000000000000000000000000000081525081526020016040518060400160405280600a81526020017f4c6963656e636961646f0000000000000000000000000000000000000000000081525081526020016040518060400160405280600781526020017f4d61657374726f0000000000000000000000000000000000000000000000000081525081526020016040518060400160405280600a81526020017f4d6174656d617469636f0000000000000000000000000000000000000000000081525081526020016040518060400160405280600681526020017f4d656469636f000000000000000000000000000000000000000000000000000081525081526020016040518060400160405280600b81526020017f4d6574656f726f6c6f676f00000000000000000000000000000000000000000081525081526020016040518060400160405280600881526020017f4d69636f6c6f676f00000000000000000000000000000000000000000000000081525081526020016040518060400160405280600e81526020017f4d6963726f62696f6c6f6769636f00000000000000000000000000000000000081525081526020016040518060400160405280600d81526020017f4d6963726f636972756a616e6f0000000000000000000000000000000000000081525081526020016040518060400160405280600981526020017f4d696d6f677261666f000000000000000000000000000000000000000000000081525081526020016040518060400160405280600d81526020017f4d696e6572616c6f67697374610000000000000000000000000000000000000081525081526020016040518060400160405280600781526020017f4d6f6e69746f720000000000000000000000000000000000000000000000000081525081526020016040518060400160405280600a81526020017f4e617475726f706174610000000000000000000000000000000000000000000081525081526020016040518060400160405280600981526020017f4e6566726f6c6f676f000000000000000000000000000000000000000000000081525081526020016040518060400160405280600981526020017f4e65756d6f6c6f676f000000000000000000000000000000000000000000000081525081526020016040518060400160405280600f81526020017f4e6575726f616e61746f6d69737461000000000000000000000000000000000081525081526020016040518060400160405280600c81526020017f4e6575726f62696f6c6f676f000000000000000000000000000000000000000081525081526020016040518060400160405280600d81526020017f4e6575726f636972756a616e6f0000000000000000000000000000000000000081525081526020016040518060400160405280600f81526020017f4e6575726f656d6272696f6c6f676f000000000000000000000000000000000081525081526020016040518060400160405280600e81526020017f4e6575726f666973696f6c6f676f00000000000000000000000000000000000081525081526020016040518060400160405280600981526020017f4e6575726f6c6f676f000000000000000000000000000000000000000000000081525081526020016040518060400160405280600981526020017f4e7574726f6c6f676f000000000000000000000000000000000000000000000081525081526020016040518060400160405280600b81526020017f4f6365616e6f677261666f00000000000000000000000000000000000000000081525081526020016040518060400160405280600a81526020017f4f646f6e746f6c6f676f0000000000000000000000000000000000000000000081525081526020016040518060400160405280600781526020017f4f66696369616c0000000000000000000000000000000000000000000000000081525081526020016040518060400160405280600a81526020017f4f666963696e697374610000000000000000000000000000000000000000000081525081526020016040518060400160405280600b81526020017f4f6674616c6d6f6c6f676f00000000000000000000000000000000000000000081525081526020016040518060400160405280600881526020017f4f6e636f6c6f676f00000000000000000000000000000000000000000000000081525081526020016040518060400160405280600681526020017f4f707469636f000000000000000000000000000000000000000000000000000081525081526020016040518060400160405280600c81526020017f4f70746f6d65747269737461000000000000000000000000000000000000000081525081526020016040518060400160405280600981526020017f4f7264656e616e7a61000000000000000000000000000000000000000000000081525081526020016040518060400160405280600a81526020017f4f7269656e7461646f720000000000000000000000000000000000000000000081525081526020016040518060400160405280600a81526020017f4f726e69746f6c6f676f0000000000000000000000000000000000000000000081525081526020016040518060400160405280600a81526020017f4f72746f70656469636f0000000000000000000000000000000000000000000081525081526020016040518060400160405280600b81526020017f4f72746f7065646973746100000000000000000000000000000000000000000081525081526020016040518060400160405280600981526020017f4f7374656f6c6f676f000000000000000000000000000000000000000000000081525081526020016040518060400160405280600981526020017f4f7374656f70617461000000000000000000000000000000000000000000000081525081526020016040518060400160405280601381526020017f4f746f7272696e6f6c6172696e676f6c6f676f0000000000000000000000000081525081526020016040518060400160405280600c81526020017f50616c656f62696f6c6f676f000000000000000000000000000000000000000081525081526020016040518060400160405280600d81526020017f50616c656f626f74616e69636f0000000000000000000000000000000000000081525081526020016040518060400160405280600a81526020017f50616c656f677261666f0000000000000000000000000000000000000000000081525081526020016040518060400160405280600981526020017f50616c656f6c6f676f000000000000000000000000000000000000000000000081525081526020016040518060400160405280600c81526020017f50616c656f6e746f6c6f676f000000000000000000000000000000000000000081525081526020016040518060400160405280600881526020017f5061746f6c6f676f00000000000000000000000000000000000000000000000081525081526020016040518060400160405280600881526020017f50656461676f676f00000000000000000000000000000000000000000000000081525081526020016040518060400160405280600881526020017f506564696375726f00000000000000000000000000000000000000000000000081525081526020016040518060400160405280600a81526020017f506572696f64697374610000000000000000000000000000000000000000000081525081526020016040518060400160405280600981526020017f496e67656e6965726f000000000000000000000000000000000000000000000081525081526020016040518060400160405280600b81526020017f506973636963756c746f7200000000000000000000000000000000000000000081525081526020016040518060400160405280600881526020017f506f646f6c6f676f00000000000000000000000000000000000000000000000081525081526020016040518060400160405280600781526020017f506f727465726f0000000000000000000000000000000000000000000000000081525081526020016040518060400160405280600e81526020017f507265686973746f726961646f7200000000000000000000000000000000000081525081526020016040518060400160405280600a81526020017f507265736964656e74650000000000000000000000000000000000000000000081525081526020016040518060400160405280600a81526020017f50726f63746f6c6f676f0000000000000000000000000000000000000000000081525081526020016040518060400160405280600881526020017f50726f6665736f7200000000000000000000000000000000000000000000000081525081526020016040518060400160405280600b81526020017f50726f6772616d61646f7200000000000000000000000000000000000000000081525081526020016040518060400160405280600981526020017f50726f74657369636f000000000000000000000000000000000000000000000081525081526020016040518060400160405280600981526020017f50726f766565646f72000000000000000000000000000000000000000000000081525081526020016040518060400160405280600d81526020017f507369636f616e616c697374610000000000000000000000000000000000000081525081526020016040518060400160405280600981526020017f507369636f6c6f676f000000000000000000000000000000000000000000000081525081526020016040518060400160405280600b81526020017f507369636f66697369636f00000000000000000000000000000000000000000081525081526020016040518060400160405280600d81526020017f507369636f70656461676f676f0000000000000000000000000000000000000081525081526020016040518060400160405280600e81526020017f507369636f74657261706575746100000000000000000000000000000000000081525081526020016040518060400160405280600a81526020017f507369717569617472610000000000000000000000000000000000000000000081525081526020016040518060400160405280600a81526020017f5075626c6963697374610000000000000000000000000000000000000000000081525081526020016040518060400160405280600c81526020017f5075626c696369746172696f000000000000000000000000000000000000000081525081526020016040518060400160405280600b81526020017f507565726963756c746f7200000000000000000000000000000000000000000081525081526020016040518060400160405280600781526020017f5175696d69636f0000000000000000000000000000000000000000000000000081525081526020016040518060400160405280600d81526020017f517569726f707261637469636f0000000000000000000000000000000000000081525081526020016040518060400160405280600e81526020017f526164696f617374726f6e6f6d6f00000000000000000000000000000000000081525081526020016040518060400160405280600c81526020017f526164696f666f6e69737461000000000000000000000000000000000000000081525081526020016040518060400160405280600981526020017f526164696f6c6f676f000000000000000000000000000000000000000000000081525081526020016040518060400160405280600c81526020017f526164696f7465636e69636f000000000000000000000000000000000000000081525081526020016040518060400160405280601081526020017f526164696f74656c65666f6e697374610000000000000000000000000000000081525081526020016040518060400160405280601181526020017f526164696f74656c65677261666973746100000000000000000000000000000081525081526020016040518060400160405280600e81526020017f526164696f74657261706575746100000000000000000000000000000000000081525081526020016040518060400160405280600681526020017f526563746f72000000000000000000000000000000000000000000000000000081525081526020016040518060400160405280600981526020017f53616e69746172696f000000000000000000000000000000000000000000000081525081526020016040518060400160405280600a81526020017f5365637265746172696f0000000000000000000000000000000000000000000081525081526020016040518060400160405280600881526020017f5365786f6c6f676f00000000000000000000000000000000000000000000000081525081526020016040518060400160405280600981526020017f5369736d6f6c6f676f000000000000000000000000000000000000000000000081525081526020016040518060400160405280600981526020017f536f63696f6c6f676f000000000000000000000000000000000000000000000081525081526020016040518060400160405280600b81526020017f53756264656c656761646f00000000000000000000000000000000000000000081525081526020016040518060400160405280600b81526020017f5375626469726563746f7200000000000000000000000000000000000000000081525081526020016040518060400160405280600d81526020017f5375627365637265746172696f0000000000000000000000000000000000000081525081526020016040518060400160405280600781526020017f5465636e69636f0000000000000000000000000000000000000000000000000081525081526020016040518060400160405280600b81526020017f54656c65666f6e6973746100000000000000000000000000000000000000000081525081526020016040518060400160405280600781526020017f54656f6c6f676f0000000000000000000000000000000000000000000000000081525081526020016040518060400160405280600981526020017f546572617065757461000000000000000000000000000000000000000000000081525081526020016040518060400160405280600e81526020017f546f636f67696e65636f6c6f676f00000000000000000000000000000000000081525081526020016040518060400160405280600881526020017f546f636f6c6f676f00000000000000000000000000000000000000000000000081525081526020016040518060400160405280600a81526020017f546f7869636f6c6f676f0000000000000000000000000000000000000000000081525081526020016040518060400160405280600981526020017f547261647563746f72000000000000000000000000000000000000000000000081525081526020016040518060400160405280600c81526020017f5472616e7363726970746f72000000000000000000000000000000000000000081525081526020016040518060400160405280600c81526020017f547261756d61746f6c6f676f000000000000000000000000000000000000000081525081526020016040518060400160405280600581526020017f5475746f7200000000000000000000000000000000000000000000000000000081525081526020016040518060400160405280600781526020017f55726f6c6f676f0000000000000000000000000000000000000000000000000081525081526020016040518060400160405280600b81526020017f5665746572696e6172696f00000000000000000000000000000000000000000081525081526020016040518060400160405280600a81526020017f56696365646563616e6f0000000000000000000000000000000000000000000081525081526020016040518060400160405280600c81526020017f566963656469726563746f72000000000000000000000000000000000000000081525081526020016040518060400160405280600b81526020017f56696365676572656e746500000000000000000000000000000000000000000081525081526020016040518060400160405280600e81526020017f56696365707265736964656e746500000000000000000000000000000000000081525081526020016040518060400160405280600b81526020017f5669636572726563746f7200000000000000000000000000000000000000000081525081526020016040518060400160405280600e81526020017f566963657365637265746172696f00000000000000000000000000000000000081525081526020016040518060400160405280600881526020017f5669726f6c6f676f00000000000000000000000000000000000000000000000081525081526020016040518060400160405280600a81526020017f5669746963756c746f720000000000000000000000000000000000000000000081525081526020016040518060400160405280600b81526020017f56756c63616e6f6c6f676f00000000000000000000000000000000000000000081525081526020016040518060400160405280600981526020017f58696c6f677261666f000000000000000000000000000000000000000000000081525081526020016040518060400160405280600781526020017f5a6f6f6c6f676f0000000000000000000000000000000000000000000000000081525081526020016040518060400160405280600a81526020017f5a6f6f7465636e69636f00000000000000000000000000000000000000000000815250815250600b9060fb6200550c929190620065c1565b506040518061078001604052806040518060400160405280600781526020017f4a7576656e696c0000000000000000000000000000000000000000000000000081525081526020016040518060400160405280600581526020017f44756c636500000000000000000000000000000000000000000000000000000081525081526020016040518060400160405280600981526020017f436f6d756e69737461000000000000000000000000000000000000000000000081525081526020016040518060400160405280600681526020017f416d6172676f000000000000000000000000000000000000000000000000000081525081526020016040518060400160405280600881526020017f44696d696e75746f00000000000000000000000000000000000000000000000081525081526020016040518060400160405280600881526020017f496e66616e74696c00000000000000000000000000000000000000000000000081525081526020016040518060400160405280600481526020017f5365636f0000000000000000000000000000000000000000000000000000000081525081526020016040518060400160405280600b81526020017f4361706974616c6973746100000000000000000000000000000000000000000081525081526020016040518060400160405280600481526020017f4361726f0000000000000000000000000000000000000000000000000000000081525081526020016040518060400160405280600c81526020017f52656e6163656e7469737461000000000000000000000000000000000000000081525081526020016040518060400160405280600b81526020017f496e74656c6967656e746500000000000000000000000000000000000000000081525081526020016040518060400160405280600b81526020017f466f746f6772616669636f00000000000000000000000000000000000000000081525081526020016040518060400160405280600581526020017f527562696f00000000000000000000000000000000000000000000000000000081525081526020016040518060400160405280600981526020017f44697665727469646f000000000000000000000000000000000000000000000081525081526020016040518060400160405280600681526020017f467565727465000000000000000000000000000000000000000000000000000081525081526020016040518060400160405280600481526020017f4669656c0000000000000000000000000000000000000000000000000000000081525081526020016040518060400160405280600581526020017f446562696c00000000000000000000000000000000000000000000000000000081525081526020016040518060400160405280600981526020017f416772616461626c65000000000000000000000000000000000000000000000081525081526020016040518060400160405280600881526020017f466c657869626c6500000000000000000000000000000000000000000000000081525081526020016040518060400160405280600581526020017f537563696f00000000000000000000000000000000000000000000000000000081525081526020016040518060400160405280600681526020017f4c696d70696f000000000000000000000000000000000000000000000000000081525081526020016040518060400160405280600681526020017f416d61626c65000000000000000000000000000000000000000000000000000081525081526020016040518060400160405280600781526020017f4d6f6465726e6f0000000000000000000000000000000000000000000000000081525081526020016040518060400160405280600681526020017f41737065726f000000000000000000000000000000000000000000000000000081525081526020016040518060400160405280600881526020017f56616c69656e746500000000000000000000000000000000000000000000000081525081526020016040518060400160405280600581526020017f537561766500000000000000000000000000000000000000000000000000000081525081526020016040518060400160405280600781526020017f4865726d6f736f0000000000000000000000000000000000000000000000000081525081526020016040518060400160405280600681526020017f5275676f736f000000000000000000000000000000000000000000000000000081525081526020016040518060400160405280600981526020017f4573706f6e6a6f736f000000000000000000000000000000000000000000000081525081526020016040518060400160405280600581526020017f437275656c00000000000000000000000000000000000000000000000000000081525081526020016040518060400160405280600581526020017f466c6f6a6f00000000000000000000000000000000000000000000000000000081525081526020016040518060400160405280600881526020017f506572666563746f00000000000000000000000000000000000000000000000081525081526020016040518060400160405280600581526020017f43756c746f00000000000000000000000000000000000000000000000000000081525081526020016040518060400160405280600b81526020017f44656d6f6372617469636f00000000000000000000000000000000000000000081525081526020016040518060400160405280600981526020017f41727469737469636f000000000000000000000000000000000000000000000081525081526020016040518060400160405280600a81526020017f496e646976696475616c0000000000000000000000000000000000000000000081525081526020016040518060400160405280600981526020017f52656c6967696f736f000000000000000000000000000000000000000000000081525081526020016040518060400160405280600881526020017f526567696f6e616c00000000000000000000000000000000000000000000000081525081526020016040518060400160405280600981526020017f45636f6e6f6d69636f000000000000000000000000000000000000000000000081525081526020016040518060400160405280600981526020017f486973746f7269636f000000000000000000000000000000000000000000000081525081526020016040518060400160405280600981526020017f4d696c6974616e7465000000000000000000000000000000000000000000000081525081526020016040518060400160405280600881526020017f46616d696c69617200000000000000000000000000000000000000000000000081525081526020016040518060400160405280600981526020017f4d657263616e74696c000000000000000000000000000000000000000000000081525081526020016040518060400160405280600c81526020017f56616e677561726469737461000000000000000000000000000000000000000081525081526020016040518060400160405280600a81526020017f5175697275726769636f0000000000000000000000000000000000000000000081525081526020016040518060400160405280600881526020017f506f6465726f736f00000000000000000000000000000000000000000000000081525081526020016040518060400160405280600881526020017f4d6163686973746100000000000000000000000000000000000000000000000081525081526020016040518060400160405280600981526020017f46656d696e69737461000000000000000000000000000000000000000000000081525081526020016040518060400160405280600481526020017f4174656f0000000000000000000000000000000000000000000000000000000081525081526020016040518060400160405280600781526020017f427564697374610000000000000000000000000000000000000000000000000081525081526020016040518060400160405280600881526020017f52656e656761646f00000000000000000000000000000000000000000000000081525081526020016040518060400160405280600881526020017f43616c656e746f6e00000000000000000000000000000000000000000000000081525081526020016040518060400160405280600881526020017f547261766573746900000000000000000000000000000000000000000000000081525081526020016040518060400160405280600781526020017f536578697374610000000000000000000000000000000000000000000000000081525081526020016040518060400160405280600781526020017f4d6f72626f736f0000000000000000000000000000000000000000000000000081525081526020016040518060400160405280600581526020017f4d616d6f6e00000000000000000000000000000000000000000000000000000081525081526020016040518060400160405280600581526020017f547572726f00000000000000000000000000000000000000000000000000000081525081526020016040518060400160405280600781526020017f43616e656c6f6e0000000000000000000000000000000000000000000000000081525081526020016040518060400160405280600881526020017f416d72616761646f00000000000000000000000000000000000000000000000081525081526020016040518060400160405280600881526020017f417472657669646f000000000000000000000000000000000000000000000000815250815250600c90603c620062fd92919062006628565b503480156200630b57600080fd5b506040518060400160405280600981526020017f5371756172654e465400000000000000000000000000000000000000000000008152506040518060400160405280600681526020017f5351554152450000000000000000000000000000000000000000000000000000815250816000908051906020019062006390929190620064c9565b508060019080519060200190620063a9929190620064c9565b505050620063f76040518060400160405280601e81526020017f54686973206973206d79204e465420636f6e74726163742e20576f6168210000815250620063fd60201b620013301760201c565b62006849565b6200649d816040516024016200641491906200675d565b6040516020818303038152906040527f41304fac000000000000000000000000000000000000000000000000000000007bffffffffffffffffffffffffffffffffffffffffffffffffffffffff19166020820180517bffffffffffffffffffffffffffffffffffffffffffffffffffffffff8381831617835250505050620064a060201b60201c565b50565b60008151905060006a636f6e736f6c652e6c6f679050602083016000808483855afa5050505050565b828054620064d790620067d3565b90600052602060002090601f016020900481019282620064fb576000855562006547565b82601f106200651657805160ff191683800117855562006547565b8280016001018555821562006547579182015b828111156200654657825182559160200191906001019062006529565b5b5090506200655691906200668f565b5090565b828054828255906000526020600020908101928215620065ae579160200282015b82811115620065ad5782518290805190602001906200659c929190620064c9565b50916020019190600101906200657b565b5b509050620065bd9190620066ae565b5090565b82805482825590600052602060002090810192821562006615579160200282015b828111156200661457825182908051906020019062006603929190620064c9565b5091602001919060010190620065e2565b5b509050620066249190620066ae565b5090565b8280548282559060005260206000209081019282156200667c579160200282015b828111156200667b5782518290805190602001906200666a929190620064c9565b509160200191906001019062006649565b5b5090506200668b9190620066ae565b5090565b5b80821115620066aa57600081600090555060010162006690565b5090565b5b80821115620066d25760008181620066c89190620066d6565b50600101620066af565b5090565b508054620066e490620067d3565b6000825580601f10620066f8575062006719565b601f0160209004906000526020600020908101906200671891906200668f565b5b50565b6000620067298262006781565b6200673581856200678c565b9350620067478185602086016200679d565b620067528162006838565b840191505092915050565b600060208201905081810360008301526200677981846200671c565b905092915050565b600081519050919050565b600082825260208201905092915050565b60005b83811015620067bd578082015181840152602081019050620067a0565b83811115620067cd576000848401525b50505050565b60006002820490506001821680620067ec57607f821691505b6020821081141562006803576200680262006809565b5b50919050565b7f4e487b7100000000000000000000000000000000000000000000000000000000600052602260045260246000fd5b6000601f19601f8301169050919050565b613e1680620068596000396000f3fe608060405234801561001057600080fd5b50600436106101165760003560e01c806395d89b41116100a2578063c575757a11610071578063c575757a14610303578063c87b56dd14610333578063d5abeb0114610363578063de9d132f14610381578063e985e9c51461038b57610116565b806395d89b411461027d578063a22cb4651461029b578063b187301f146102b7578063b88d4fde146102e757610116565b806323b872dd116100e957806323b872dd146101b55780632de38d68146101d157806342842e0e146102015780636352211e1461021d57806370a082311461024d57610116565b806301ffc9a71461011b57806306fdde031461014b578063081812fc14610169578063095ea7b314610199575b600080fd5b610135600480360381019061013091906127cc565b6103bb565b6040516101429190612f3e565b60405180910390f35b61015361049d565b6040516101609190612f59565b60405180910390f35b610183600480360381019061017e919061281e565b61052f565b6040516101909190612eae565b60405180910390f35b6101b360048036038101906101ae9190612790565b6105b4565b005b6101cf60048036038101906101ca919061268a565b6106cc565b005b6101eb60048036038101906101e6919061281e565b61072c565b6040516101f89190612f59565b60405180910390f35b61021b6004803603810190610216919061268a565b61084a565b005b6102376004803603810190610232919061281e565b61086a565b6040516102449190612eae565b60405180910390f35b61026760048036038101906102629190612625565b61091c565b6040516102749190613209565b60405180910390f35b6102856109d4565b6040516102929190612f59565b60405180910390f35b6102b560048036038101906102b09190612754565b610a66565b005b6102d160048036038101906102cc919061281e565b610a7c565b6040516102de9190612f59565b60405180910390f35b61030160048036038101906102fc91906126d9565b610b9a565b005b61031d6004803603810190610318919061281e565b610bfc565b60405161032a9190612f59565b60405180910390f35b61034d6004803603810190610348919061281e565b610d1a565b60405161035a9190612f59565b60405180910390f35b61036b610e6c565b6040516103789190613209565b60405180910390f35b610389610e72565b005b6103a560048036038101906103a0919061264e565b61129c565b6040516103b29190612f3e565b60405180910390f35b60007f80ac58cd000000000000000000000000000000000000000000000000000000007bffffffffffffffffffffffffffffffffffffffffffffffffffffffff1916827bffffffffffffffffffffffffffffffffffffffffffffffffffffffff1916148061048657507f5b5e139f000000000000000000000000000000000000000000000000000000007bffffffffffffffffffffffffffffffffffffffffffffffffffffffff1916827bffffffffffffffffffffffffffffffffffffffffffffffffffffffff1916145b806104965750610495826113c9565b5b9050919050565b6060600080546104ac906134c6565b80601f01602080910402602001604051908101604052809291908181526020018280546104d8906134c6565b80156105255780601f106104fa57610100808354040283529160200191610525565b820191906000526020600020905b81548152906001019060200180831161050857829003601f168201915b5050505050905090565b600061053a82611433565b610579576040517f08c379a000000000000000000000000000000000000000000000000000000000815260040161057090613149565b60405180910390fd5b6004600083815260200190815260200160002060009054906101000a900473ffffffffffffffffffffffffffffffffffffffff169050919050565b60006105bf8261086a565b90508073ffffffffffffffffffffffffffffffffffffffff168373ffffffffffffffffffffffffffffffffffffffff161415610630576040517f08c379a0000000000000000000000000000000000000000000000000000000008152600401610627906131a9565b60405180910390fd5b8073ffffffffffffffffffffffffffffffffffffffff1661064f61149f565b73ffffffffffffffffffffffffffffffffffffffff16148061067e575061067d8161067861149f565b61129c565b5b6106bd576040517f08c379a00000000000000000000000000000000000000000000000000000000081526004016106b490613089565b60405180910390fd5b6106c783836114a7565b505050565b6106dd6106d761149f565b82611560565b61071c576040517f08c379a0000000000000000000000000000000000000000000000000000000008152600401610713906131c9565b60405180910390fd5b61072783838361163e565b505050565b6060600061076061073c8461189a565b60405160200161074c9190612e6a565b604051602081830303815290604052611a47565b9050600a80549050816107739190613572565b9050600a81815481106107af577f4e487b7100000000000000000000000000000000000000000000000000000000600052603260045260246000fd5b9060005260206000200180546107c4906134c6565b80601f01602080910402602001604051908101604052809291908181526020018280546107f0906134c6565b801561083d5780601f106108125761010080835404028352916020019161083d565b820191906000526020600020905b81548152906001019060200180831161082057829003601f168201915b5050505050915050919050565b61086583838360405180602001604052806000815250610b9a565b505050565b6000806002600084815260200190815260200160002060009054906101000a900473ffffffffffffffffffffffffffffffffffffffff169050600073ffffffffffffffffffffffffffffffffffffffff168173ffffffffffffffffffffffffffffffffffffffff161415610913576040517f08c379a000000000000000000000000000000000000000000000000000000000815260040161090a906130c9565b60405180910390fd5b80915050919050565b60008073ffffffffffffffffffffffffffffffffffffffff168273ffffffffffffffffffffffffffffffffffffffff16141561098d576040517f08c379a0000000000000000000000000000000000000000000000000000000008152600401610984906130a9565b60405180910390fd5b600360008373ffffffffffffffffffffffffffffffffffffffff1673ffffffffffffffffffffffffffffffffffffffff168152602001908152602001600020549050919050565b6060600180546109e3906134c6565b80601f0160208091040260200160405190810160405280929190818152602001828054610a0f906134c6565b8015610a5c5780601f10610a3157610100808354040283529160200191610a5c565b820191906000526020600020905b815481529060010190602001808311610a3f57829003601f168201915b5050505050905090565b610a78610a7161149f565b8383611a7a565b5050565b60606000610ab0610a8c8461189a565b604051602001610a9c9190612e03565b604051602081830303815290604052611a47565b9050600b8054905081610ac39190613572565b9050600b8181548110610aff577f4e487b7100000000000000000000000000000000000000000000000000000000600052603260045260246000fd5b906000526020600020018054610b14906134c6565b80601f0160208091040260200160405190810160405280929190818152602001828054610b40906134c6565b8015610b8d5780601f10610b6257610100808354040283529160200191610b8d565b820191906000526020600020905b815481529060010190602001808311610b7057829003601f168201915b5050505050915050919050565b610bab610ba561149f565b83611560565b610bea576040517f08c379a0000000000000000000000000000000000000000000000000000000008152600401610be1906131c9565b60405180910390fd5b610bf684848484611be7565b50505050565b60606000610c30610c0c8461189a565b604051602001610c1c9190612de1565b604051602081830303815290604052611a47565b9050600c8054905081610c439190613572565b9050600c8181548110610c7f577f4e487b7100000000000000000000000000000000000000000000000000000000600052603260045260246000fd5b906000526020600020018054610c94906134c6565b80601f0160208091040260200160405190810160405280929190818152602001828054610cc0906134c6565b8015610d0d5780601f10610ce257610100808354040283529160200191610d0d565b820191906000526020600020905b815481529060010190602001808311610cf057829003601f168201915b5050505050915050919050565b6060610d2582611433565b610d64576040517f08c379a0000000000000000000000000000000000000000000000000000000008152600401610d5b90613129565b60405180910390fd5b6000600660008481526020019081526020016000208054610d84906134c6565b80601f0160208091040260200160405190810160405280929190818152602001828054610db0906134c6565b8015610dfd5780601f10610dd257610100808354040283529160200191610dfd565b820191906000526020600020905b815481529060010190602001808311610de057829003601f168201915b505050505090506000610e0e611c43565b9050600081511415610e24578192505050610e67565b600082511115610e59578082604051602001610e41929190612d3b565b60405160208183030381529060405292505050610e67565b610e6284611c5a565b925050505b919050565b60085481565b6000610e7e6007611d01565b9050600854610e8d6007611d01565b10610ecd576040517f08c379a0000000000000000000000000000000000000000000000000000000008152600401610ec4906131e9565b60405180910390fd5b6000610ed88261072c565b90506000610ee583610a7c565b90506000610ef284610bfc565b90506000838383604051602001610f0b93929190612d5f565b60405160208183030381529060405290506000600982604051602001610f32929190612d90565b60405160208183030381529060405290506000610f7783610f5284611d0f565b604051602001610f63929190612e25565b604051602081830303815290604052611d0f565b9050600081604051602001610f8c9190612e8c565b6040516020818303038152906040529050610fdb6040518060400160405280601581526020017f0a2d2d2d2d2d2d2d2d2d2d2d2d2d2d2d2d2d2d2d2d0000000000000000000000815250611330565b610fe483611330565b6110226040518060400160405280601581526020017f2d2d2d2d2d2d2d2d2d2d2d2d2d2d2d2d2d2d2d2d0a0000000000000000000000815250611330565b6110606040518060400160405280601581526020017f0a2d2d2d2d2d2d2d2d2d2d2d2d2d2d2d2d2d2d2d2d0000000000000000000000815250611330565b61106981611330565b6110a76040518060400160405280601581526020017f2d2d2d2d2d2d2d2d2d2d2d2d2d2d2d2d2d2d2d2d0a0000000000000000000000815250611330565b6110e56040518060400160405280601581526020017f0a2d2d2d2d2d2d2d2d2d2d2d2d2d2d2d2d2d2d2d2d0000000000000000000000815250611330565b61110d816040516020016110f99190612dbf565b604051602081830303815290604052611330565b61114b6040518060400160405280601581526020017f2d2d2d2d2d2d2d2d2d2d2d2d2d2d2d2d2d2d2d2d0a0000000000000000000000815250611330565b6111553389611ecd565b61115f8882611eeb565b6111696007611f5f565b61118c604051806060016040528060248152602001613d7d602491398933611f75565b6111d46040518060400160405280600b81526020017f546f74616c2d4e4654733a0000000000000000000000000000000000000000008152506111cf6007611d01565b612014565b6112156040518060400160405280600981526020017f6d6178537570706c790000000000000000000000000000000000000000000000815250600854612014565b7febb98688741ffa4c7589bf325de30cf7becb63de567842e1ccdb6cb949fdc82c3389604051611246929190612f15565b60405180910390a17f813268505ad13bd9105919c2378c0326d0aca78e5fd42ee3ff7028a390409ec360085461127c6007611d01565b60405161128a929190613224565b60405180910390a15050505050505050565b6000600560008473ffffffffffffffffffffffffffffffffffffffff1673ffffffffffffffffffffffffffffffffffffffff16815260200190815260200160002060008373ffffffffffffffffffffffffffffffffffffffff1673ffffffffffffffffffffffffffffffffffffffff16815260200190815260200160002060009054906101000a900460ff16905092915050565b6113c6816040516024016113449190612f59565b6040516020818303038152906040527f41304fac000000000000000000000000000000000000000000000000000000007bffffffffffffffffffffffffffffffffffffffffffffffffffffffff19166020820180517bffffffffffffffffffffffffffffffffffffffffffffffffffffffff83818316178352505050506120b0565b50565b60007f01ffc9a7000000000000000000000000000000000000000000000000000000007bffffffffffffffffffffffffffffffffffffffffffffffffffffffff1916827bffffffffffffffffffffffffffffffffffffffffffffffffffffffff1916149050919050565b60008073ffffffffffffffffffffffffffffffffffffffff166002600084815260200190815260200160002060009054906101000a900473ffffffffffffffffffffffffffffffffffffffff1673ffffffffffffffffffffffffffffffffffffffff1614159050919050565b600033905090565b816004600083815260200190815260200160002060006101000a81548173ffffffffffffffffffffffffffffffffffffffff021916908373ffffffffffffffffffffffffffffffffffffffff160217905550808273ffffffffffffffffffffffffffffffffffffffff1661151a8361086a565b73ffffffffffffffffffffffffffffffffffffffff167f8c5be1e5ebec7d5bd14f71427d1e84f3dd0314c0f7b2291e5b200ac8c7c3b92560405160405180910390a45050565b600061156b82611433565b6115aa576040517f08c379a00000000000000000000000000000000000000000000000000000000081526004016115a190613069565b60405180910390fd5b60006115b58361086a565b90508073ffffffffffffffffffffffffffffffffffffffff168473ffffffffffffffffffffffffffffffffffffffff16148061162457508373ffffffffffffffffffffffffffffffffffffffff1661160c8461052f565b73ffffffffffffffffffffffffffffffffffffffff16145b806116355750611634818561129c565b5b91505092915050565b8273ffffffffffffffffffffffffffffffffffffffff1661165e8261086a565b73ffffffffffffffffffffffffffffffffffffffff16146116b4576040517f08c379a00000000000000000000000000000000000000000000000000000000081526004016116ab90613169565b60405180910390fd5b600073ffffffffffffffffffffffffffffffffffffffff168273ffffffffffffffffffffffffffffffffffffffff161415611724576040517f08c379a000000000000000000000000000000000000000000000000000000000815260040161171b90613029565b60405180910390fd5b61172f8383836120d9565b61173a6000826114a7565b6001600360008573ffffffffffffffffffffffffffffffffffffffff1673ffffffffffffffffffffffffffffffffffffffff168152602001908152602001600020600082825461178a91906133dc565b925050819055506001600360008473ffffffffffffffffffffffffffffffffffffffff1673ffffffffffffffffffffffffffffffffffffffff16815260200190815260200160002060008282546117e191906132fb565b92505081905550816002600083815260200190815260200160002060006101000a81548173ffffffffffffffffffffffffffffffffffffffff021916908373ffffffffffffffffffffffffffffffffffffffff160217905550808273ffffffffffffffffffffffffffffffffffffffff168473ffffffffffffffffffffffffffffffffffffffff167fddf252ad1be2c89b69c2b068fc378daa952ba7f163c4a11628f55a4df523b3ef60405160405180910390a4505050565b606060008214156118e2576040518060400160405280600181526020017f30000000000000000000000000000000000000000000000000000000000000008152509050611a42565b600082905060005b600082146119145780806118fd90613529565b915050600a8261190d9190613351565b91506118ea565b60008167ffffffffffffffff811115611956577f4e487b7100000000000000000000000000000000000000000000000000000000600052604160045260246000fd5b6040519080825280601f01601f1916602001820160405280156119885781602001600182028036833780820191505090505b5090505b60008514611a3b576001826119a191906133dc565b9150600a856119b09190613572565b60306119bc91906132fb565b60f81b8183815181106119f8577f4e487b7100000000000000000000000000000000000000000000000000000000600052603260045260246000fd5b60200101907effffffffffffffffffffffffffffffffffffffffffffffffffffffffffffff1916908160001a905350600a85611a349190613351565b945061198c565b8093505050505b919050565b600081604051602001611a5a9190612d24565b6040516020818303038152906040528051906020012060001c9050919050565b8173ffffffffffffffffffffffffffffffffffffffff168373ffffffffffffffffffffffffffffffffffffffff161415611ae9576040517f08c379a0000000000000000000000000000000000000000000000000000000008152600401611ae090613049565b60405180910390fd5b80600560008573ffffffffffffffffffffffffffffffffffffffff1673ffffffffffffffffffffffffffffffffffffffff16815260200190815260200160002060008473ffffffffffffffffffffffffffffffffffffffff1673ffffffffffffffffffffffffffffffffffffffff16815260200190815260200160002060006101000a81548160ff0219169083151502179055508173ffffffffffffffffffffffffffffffffffffffff168373ffffffffffffffffffffffffffffffffffffffff167f17307eab39ab6107e8899845ad3d59bd9653f200f220920489ca2b5937696c3183604051611bda9190612f3e565b60405180910390a3505050565b611bf284848461163e565b611bfe848484846120de565b611c3d576040517f08c379a0000000000000000000000000000000000000000000000000000000008152600401611c3490612fe9565b60405180910390fd5b50505050565b606060405180602001604052806000815250905090565b6060611c6582611433565b611ca4576040517f08c379a0000000000000000000000000000000000000000000000000000000008152600401611c9b90613189565b60405180910390fd5b6000611cae611c43565b90506000815111611cce5760405180602001604052806000815250611cf9565b80611cd88461189a565b604051602001611ce9929190612d3b565b6040516020818303038152906040525b915050919050565b600081600001549050919050565b60606000825190506000811415611d385760405180602001604052806000815250915050611ec8565b60006003600283611d4991906132fb565b611d539190613351565b6004611d5f9190613382565b90506000602082611d7091906132fb565b67ffffffffffffffff811115611daf577f4e487b7100000000000000000000000000000000000000000000000000000000600052604160045260246000fd5b6040519080825280601f01601f191660200182016040528015611de15781602001600182028036833780820191505090505b5090506000604051806060016040528060408152602001613da1604091399050600181016020830160005b86811015611e855760038101905062ffffff818a015116603f8160121c168401518060081b905060ff603f83600c1c1686015116810190508060081b905060ff603f8360061c1686015116810190508060081b905060ff603f831686015116810190508060e01b90508084526004840193505050611e0c565b506003860660018114611e9f5760028114611eaf57611eba565b613d3d60f01b6002830352611eba565b603d60f81b60018303525b508484525050819450505050505b919050565b611ee7828260405180602001604052806000815250612275565b5050565b611ef482611433565b611f33576040517f08c379a0000000000000000000000000000000000000000000000000000000008152600401611f2a906130e9565b60405180910390fd5b80600660008481526020019081526020016000209080519060200190611f5a9291906124b1565b505050565b6001816000016000828254019250508190555050565b61200f838383604051602401611f8d93929190612fab565b6040516020818303038152906040527fe3849f79000000000000000000000000000000000000000000000000000000007bffffffffffffffffffffffffffffffffffffffffffffffffffffffff19166020820180517bffffffffffffffffffffffffffffffffffffffffffffffffffffffff83818316178352505050506120b0565b505050565b6120ac828260405160240161202a929190612f7b565b6040516020818303038152906040527f9710a9d0000000000000000000000000000000000000000000000000000000007bffffffffffffffffffffffffffffffffffffffffffffffffffffffff19166020820180517bffffffffffffffffffffffffffffffffffffffffffffffffffffffff83818316178352505050506120b0565b5050565b60008151905060006a636f6e736f6c652e6c6f679050602083016000808483855afa5050505050565b505050565b60006120ff8473ffffffffffffffffffffffffffffffffffffffff166122d0565b15612268578373ffffffffffffffffffffffffffffffffffffffff1663150b7a0261212861149f565b8786866040518563ffffffff1660e01b815260040161214a9493929190612ec9565b602060405180830381600087803b15801561216457600080fd5b505af192505050801561219557506040513d601f19601f8201168201806040525081019061219291906127f5565b60015b612218573d80600081146121c5576040519150601f19603f3d011682016040523d82523d6000602084013e6121ca565b606091505b50600081511415612210576040517f08c379a000000000000000000000000000000000000000000000000000000000815260040161220790612fe9565b60405180910390fd5b805181602001fd5b63150b7a0260e01b7bffffffffffffffffffffffffffffffffffffffffffffffffffffffff1916817bffffffffffffffffffffffffffffffffffffffffffffffffffffffff19161491505061226d565b600190505b949350505050565b61227f83836122e3565b61228c60008484846120de565b6122cb576040517f08c379a00000000000000000000000000000000000000000000000000000000081526004016122c290612fe9565b60405180910390fd5b505050565b600080823b905060008111915050919050565b600073ffffffffffffffffffffffffffffffffffffffff168273ffffffffffffffffffffffffffffffffffffffff161415612353576040517f08c379a000000000000000000000000000000000000000000000000000000000815260040161234a90613109565b60405180910390fd5b61235c81611433565b1561239c576040517f08c379a000000000000000000000000000000000000000000000000000000000815260040161239390613009565b60405180910390fd5b6123a8600083836120d9565b6001600360008473ffffffffffffffffffffffffffffffffffffffff1673ffffffffffffffffffffffffffffffffffffffff16815260200190815260200160002060008282546123f891906132fb565b92505081905550816002600083815260200190815260200160002060006101000a81548173ffffffffffffffffffffffffffffffffffffffff021916908373ffffffffffffffffffffffffffffffffffffffff160217905550808273ffffffffffffffffffffffffffffffffffffffff16600073ffffffffffffffffffffffffffffffffffffffff167fddf252ad1be2c89b69c2b068fc378daa952ba7f163c4a11628f55a4df523b3ef60405160405180910390a45050565b8280546124bd906134c6565b90600052602060002090601f0160209004810192826124df5760008555612526565b82601f106124f857805160ff1916838001178555612526565b82800160010185558215612526579182015b8281111561252557825182559160200191906001019061250a565b5b5090506125339190612537565b5090565b5b80821115612550576000816000905550600101612538565b5090565b600061256761256284613272565b61324d565b90508281526020810184848401111561257f57600080fd5b61258a848285613484565b509392505050565b6000813590506125a181613d20565b92915050565b6000813590506125b681613d37565b92915050565b6000813590506125cb81613d4e565b92915050565b6000815190506125e081613d4e565b92915050565b600082601f8301126125f757600080fd5b8135612607848260208601612554565b91505092915050565b60008135905061261f81613d65565b92915050565b60006020828403121561263757600080fd5b600061264584828501612592565b91505092915050565b6000806040838503121561266157600080fd5b600061266f85828601612592565b925050602061268085828601612592565b9150509250929050565b60008060006060848603121561269f57600080fd5b60006126ad86828701612592565b93505060206126be86828701612592565b92505060406126cf86828701612610565b9150509250925092565b600080600080608085870312156126ef57600080fd5b60006126fd87828801612592565b945050602061270e87828801612592565b935050604061271f87828801612610565b925050606085013567ffffffffffffffff81111561273c57600080fd5b612748878288016125e6565b91505092959194509250565b6000806040838503121561276757600080fd5b600061277585828601612592565b9250506020612786858286016125a7565b9150509250929050565b600080604083850312156127a357600080fd5b60006127b185828601612592565b92505060206127c285828601612610565b9150509250929050565b6000602082840312156127de57600080fd5b60006127ec848285016125bc565b91505092915050565b60006020828403121561280757600080fd5b6000612815848285016125d1565b91505092915050565b60006020828403121561283057600080fd5b600061283e84828501612610565b91505092915050565b61285081613410565b82525050565b61285f81613422565b82525050565b6000612870826132b8565b61287a81856132ce565b935061288a818560208601613493565b6128938161365f565b840191505092915050565b60006128a9826132c3565b6128b381856132df565b93506128c3818560208601613493565b6128cc8161365f565b840191505092915050565b60006128e2826132c3565b6128ec81856132f0565b93506128fc818560208601613493565b80840191505092915050565b60008154612915816134c6565b61291f81866132f0565b9450600182166000811461293a576001811461294b5761297e565b60ff1983168652818601935061297e565b612954856132a3565b60005b8381101561297657815481890152600182019150602081019050612957565b838801955050505b50505092915050565b60006129946025836132f0565b915061299f82613670565b602582019050919050565b60006129b76032836132df565b91506129c2826136bf565b604082019050919050565b60006129da601c836132df565b91506129e58261370e565b602082019050919050565b60006129fd600a836132f0565b9150612a0882613737565b600a82019050919050565b6000612a206024836132df565b9150612a2b82613760565b604082019050919050565b6000612a436019836132df565b9150612a4e826137af565b602082019050919050565b6000612a666063836132f0565b9150612a71826137d8565b606382019050919050565b6000612a89600b836132f0565b9150612a9482613873565b600b82019050919050565b6000612aac602c836132df565b9150612ab78261389c565b604082019050919050565b6000612acf600d836132f0565b9150612ada826138eb565b600d82019050919050565b6000612af26038836132df565b9150612afd82613914565b604082019050919050565b6000612b15602a836132df565b9150612b2082613963565b604082019050919050565b6000612b386029836132df565b9150612b43826139b2565b604082019050919050565b6000612b5b602e836132df565b9150612b6682613a01565b604082019050919050565b6000612b7e6002836132f0565b9150612b8982613a50565b600282019050919050565b6000612ba16020836132df565b9150612bac82613a79565b602082019050919050565b6000612bc46031836132df565b9150612bcf82613aa2565b604082019050919050565b6000612be7602c836132df565b9150612bf282613af1565b604082019050919050565b6000612c0a6029836132df565b9150612c1582613b40565b604082019050919050565b6000612c2d602f836132df565b9150612c3882613b8f565b604082019050919050565b6000612c50600a836132f0565b9150612c5b82613bde565b600a82019050919050565b6000612c736021836132df565b9150612c7e82613c07565b604082019050919050565b6000612c96600a836132f0565b9150612ca182613c56565b600a82019050919050565b6000612cb9601d836132f0565b9150612cc482613c7f565b601d82019050919050565b6000612cdc6031836132df565b9150612ce782613ca8565b604082019050919050565b6000612cff600f836132df565b9150612d0a82613cf7565b602082019050919050565b612d1e8161347a565b82525050565b6000612d3082846128d7565b915081905092915050565b6000612d4782856128d7565b9150612d5382846128d7565b91508190509392505050565b6000612d6b82866128d7565b9150612d7782856128d7565b9150612d8382846128d7565b9150819050949350505050565b6000612d9c8285612908565b9150612da882846128d7565b9150612db382612ac2565b91508190509392505050565b6000612dca82612987565b9150612dd682846128d7565b915081905092915050565b6000612dec826129f0565b9150612df882846128d7565b915081905092915050565b6000612e0e82612a7c565b9150612e1a82846128d7565b915081905092915050565b6000612e3082612c43565b9150612e3c82856128d7565b9150612e4782612a59565b9150612e5382846128d7565b9150612e5e82612b71565b91508190509392505050565b6000612e7582612c89565b9150612e8182846128d7565b915081905092915050565b6000612e9782612cac565b9150612ea382846128d7565b915081905092915050565b6000602082019050612ec36000830184612847565b92915050565b6000608082019050612ede6000830187612847565b612eeb6020830186612847565b612ef86040830185612d15565b8181036060830152612f0a8184612865565b905095945050505050565b6000604082019050612f2a6000830185612847565b612f376020830184612d15565b9392505050565b6000602082019050612f536000830184612856565b92915050565b60006020820190508181036000830152612f73818461289e565b905092915050565b60006040820190508181036000830152612f95818561289e565b9050612fa46020830184612d15565b9392505050565b60006060820190508181036000830152612fc5818661289e565b9050612fd46020830185612d15565b612fe16040830184612847565b949350505050565b60006020820190508181036000830152613002816129aa565b9050919050565b60006020820190508181036000830152613022816129cd565b9050919050565b6000602082019050818103600083015261304281612a13565b9050919050565b6000602082019050818103600083015261306281612a36565b9050919050565b6000602082019050818103600083015261308281612a9f565b9050919050565b600060208201905081810360008301526130a281612ae5565b9050919050565b600060208201905081810360008301526130c281612b08565b9050919050565b600060208201905081810360008301526130e281612b2b565b9050919050565b6000602082019050818103600083015261310281612b4e565b9050919050565b6000602082019050818103600083015261312281612b94565b9050919050565b6000602082019050818103600083015261314281612bb7565b9050919050565b6000602082019050818103600083015261316281612bda565b9050919050565b6000602082019050818103600083015261318281612bfd565b9050919050565b600060208201905081810360008301526131a281612c20565b9050919050565b600060208201905081810360008301526131c281612c66565b9050919050565b600060208201905081810360008301526131e281612ccf565b9050919050565b6000602082019050818103600083015261320281612cf2565b9050919050565b600060208201905061321e6000830184612d15565b92915050565b60006040820190506132396000830185612d15565b6132466020830184612d15565b9392505050565b6000613257613268565b905061326382826134f8565b919050565b6000604051905090565b600067ffffffffffffffff82111561328d5761328c613630565b5b6132968261365f565b9050602081019050919050565b60008190508160005260206000209050919050565b600081519050919050565b600081519050919050565b600082825260208201905092915050565b600082825260208201905092915050565b600081905092915050565b60006133068261347a565b91506133118361347a565b9250827fffffffffffffffffffffffffffffffffffffffffffffffffffffffffffffffff03821115613346576133456135a3565b5b828201905092915050565b600061335c8261347a565b91506133678361347a565b925082613377576133766135d2565b5b828204905092915050565b600061338d8261347a565b91506133988361347a565b9250817fffffffffffffffffffffffffffffffffffffffffffffffffffffffffffffffff04831182151516156133d1576133d06135a3565b5b828202905092915050565b60006133e78261347a565b91506133f28361347a565b925082821015613405576134046135a3565b5b828203905092915050565b600061341b8261345a565b9050919050565b60008115159050919050565b60007fffffffff0000000000000000000000000000000000000000000000000000000082169050919050565b600073ffffffffffffffffffffffffffffffffffffffff82169050919050565b6000819050919050565b82818337600083830152505050565b60005b838110156134b1578082015181840152602081019050613496565b838111156134c0576000848401525b50505050565b600060028204905060018216806134de57607f821691505b602082108114156134f2576134f1613601565b5b50919050565b6135018261365f565b810181811067ffffffffffffffff821117156135205761351f613630565b5b80604052505050565b60006135348261347a565b91507fffffffffffffffffffffffffffffffffffffffffffffffffffffffffffffffff821415613567576135666135a3565b5b600182019050919050565b600061357d8261347a565b91506135888361347a565b925082613598576135976135d2565b5b828206905092915050565b7f4e487b7100000000000000000000000000000000000000000000000000000000600052601160045260246000fd5b7f4e487b7100000000000000000000000000000000000000000000000000000000600052601260045260246000fd5b7f4e487b7100000000000000000000000000000000000000000000000000000000600052602260045260246000fd5b7f4e487b7100000000000000000000000000000000000000000000000000000000600052604160045260246000fd5b6000601f19601f8301169050919050565b7f68747470733a2f2f6e6674707265766965772e30786465762e636f6465732f3f60008201527f636f64653d000000000000000000000000000000000000000000000000000000602082015250565b7f4552433732313a207472616e7366657220746f206e6f6e20455243373231526560008201527f63656976657220696d706c656d656e7465720000000000000000000000000000602082015250565b7f4552433732313a20746f6b656e20616c7265616479206d696e74656400000000600082015250565b7f54484952445f574f524400000000000000000000000000000000000000000000600082015250565b7f4552433732313a207472616e7366657220746f20746865207a65726f2061646460008201527f7265737300000000000000000000000000000000000000000000000000000000602082015250565b7f4552433732313a20617070726f766520746f2063616c6c657200000000000000600082015250565b7f222c20226465736372697074696f6e223a20224120686967686c79206163636c60008201527f61696d656420636f6c6c656374696f6e206f6620737175617265732e222c202260208201527f696d616765223a2022646174613a696d6167652f7376672b786d6c3b6261736560408201527f36342c0000000000000000000000000000000000000000000000000000000000606082015250565b7f5345434f4e445f574f5244000000000000000000000000000000000000000000600082015250565b7f4552433732313a206f70657261746f7220717565727920666f72206e6f6e657860008201527f697374656e7420746f6b656e0000000000000000000000000000000000000000602082015250565b7f3c2f746578743e3c2f7376673e00000000000000000000000000000000000000600082015250565b7f4552433732313a20617070726f76652063616c6c6572206973206e6f74206f7760008201527f6e6572206e6f7220617070726f76656420666f7220616c6c0000000000000000602082015250565b7f4552433732313a2062616c616e636520717565727920666f7220746865207a6560008201527f726f206164647265737300000000000000000000000000000000000000000000602082015250565b7f4552433732313a206f776e657220717565727920666f72206e6f6e657869737460008201527f656e7420746f6b656e0000000000000000000000000000000000000000000000602082015250565b7f45524337323155524953746f726167653a2055524920736574206f66206e6f6e60008201527f6578697374656e7420746f6b656e000000000000000000000000000000000000602082015250565b7f227d000000000000000000000000000000000000000000000000000000000000600082015250565b7f4552433732313a206d696e7420746f20746865207a65726f2061646472657373600082015250565b7f45524337323155524953746f726167653a2055524920717565727920666f722060008201527f6e6f6e6578697374656e7420746f6b656e000000000000000000000000000000602082015250565b7f4552433732313a20617070726f76656420717565727920666f72206e6f6e657860008201527f697374656e7420746f6b656e0000000000000000000000000000000000000000602082015250565b7f4552433732313a207472616e73666572206f6620746f6b656e2074686174206960008201527f73206e6f74206f776e0000000000000000000000000000000000000000000000602082015250565b7f4552433732314d657461646174613a2055524920717565727920666f72206e6f60008201527f6e6578697374656e7420746f6b656e0000000000000000000000000000000000602082015250565b7f7b226e616d65223a202200000000000000000000000000000000000000000000600082015250565b7f4552433732313a20617070726f76616c20746f2063757272656e74206f776e6560008201527f7200000000000000000000000000000000000000000000000000000000000000602082015250565b7f46495253545f574f524400000000000000000000000000000000000000000000600082015250565b7f646174613a6170706c69636174696f6e2f6a736f6e3b6261736536342c000000600082015250565b7f4552433732313a207472616e736665722063616c6c6572206973206e6f74206f60008201527f776e6572206e6f7220617070726f766564000000000000000000000000000000602082015250565b7f4e6f204e465473206c656674203a280000000000000000000000000000000000600082015250565b613d2981613410565b8114613d3457600080fd5b50565b613d4081613422565b8114613d4b57600080fd5b50565b613d578161342e565b8114613d6257600080fd5b50565b613d6e8161347a565b8114613d7957600080fd5b5056fe416e204e465420772f20494420257320686173206265656e206d696e74656420746f20254142434445464748494a4b4c4d4e4f505152535455565758595a6162636465666768696a6b6c6d6e6f707172737475767778797a303132333435363738392b2fa2646970667358221220478d9d54ac10d512981df843896725a2fd7c1d0cbf8eacf629d3d1b52254d3d264736f6c634300080400333c73766720786d6c6e733d27687474703a2f2f7777772e77332e6f72672f323030302f73766727207072657365727665417370656374526174696f3d27784d696e594d696e206d656574272076696577426f783d273020302033353020333530273e3c7374796c653e2e62617365207b2066696c6c3a2077686974653b20666f6e742d66616d696c793a20636f6e736f6c653b20666f6e742d73697a653a20323470783b20666f6e742d7374796c653a206974616c69633b207d3c2f7374796c653e3c726563742077696474683d273130302527206865696768743d2731303025272066696c6c3d27626c61636b27202f3e3c7465787420783d273530252720793d273530252720636c6173733d27626173652720646f6d696e616e742d626173656c696e653d276d6964646c652720746578742d616e63686f723d276d6964646c65273e",
  "linkReferences": {},
  "deployedLinkReferences": {}
}